{
  "contractName": "HideAndSeek",
  "abi": [
    {
      "constant": true,
      "inputs": [],
      "name": "name",
      "outputs": [
        {
          "name": "",
          "type": "string"
        }
      ],
      "payable": false,
      "stateMutability": "view",
      "type": "function",
      "signature": "0x06fdde03"
    },
    {
      "constant": true,
      "inputs": [],
      "name": "decimals",
      "outputs": [
        {
          "name": "",
          "type": "uint8"
        }
      ],
      "payable": false,
      "stateMutability": "view",
      "type": "function",
      "signature": "0x313ce567"
    },
    {
      "constant": true,
      "inputs": [],
      "name": "NUM_ROOMS",
      "outputs": [
        {
          "name": "",
          "type": "uint256"
        }
      ],
      "payable": false,
      "stateMutability": "view",
      "type": "function",
      "signature": "0x4c0d1dfa"
    },
    {
      "constant": true,
      "inputs": [],
      "name": "symbol",
      "outputs": [
        {
          "name": "",
          "type": "string"
        }
      ],
      "payable": false,
      "stateMutability": "view",
      "type": "function",
      "signature": "0x95d89b41"
    },
    {
      "constant": true,
      "inputs": [],
      "name": "PRICE_PER_PLAY",
      "outputs": [
        {
          "name": "",
          "type": "uint256"
        }
      ],
      "payable": false,
      "stateMutability": "view",
      "type": "function",
      "signature": "0xc143a935"
    },
    {
      "inputs": [],
      "payable": false,
      "stateMutability": "nonpayable",
      "type": "constructor",
      "signature": "constructor"
    },
    {
      "anonymous": false,
      "inputs": [
        {
          "indexed": false,
          "name": "message",
          "type": "string"
        },
        {
          "indexed": false,
          "name": "number",
          "type": "uint256"
        }
      ],
      "name": "Log",
      "type": "event",
      "signature": "0xdd970dd9b5bfe707922155b058a407655cb18288b807e2216442bca8ad83d6b5"
    },
    {
      "anonymous": false,
      "inputs": [
        {
          "indexed": true,
          "name": "from",
          "type": "address"
        },
        {
          "indexed": true,
          "name": "to",
          "type": "address"
        },
        {
          "indexed": false,
          "name": "tokens",
          "type": "uint256"
        }
      ],
      "name": "Transfer",
      "type": "event",
      "signature": "0xddf252ad1be2c89b69c2b068fc378daa952ba7f163c4a11628f55a4df523b3ef"
    },
    {
      "anonymous": false,
      "inputs": [
        {
          "indexed": true,
          "name": "tokenOwner",
          "type": "address"
        },
        {
          "indexed": true,
          "name": "spender",
          "type": "address"
        },
        {
          "indexed": false,
          "name": "tokens",
          "type": "uint256"
        }
      ],
      "name": "Approval",
      "type": "event",
      "signature": "0x8c5be1e5ebec7d5bd14f71427d1e84f3dd0314c0f7b2291e5b200ac8c7c3b925"
    },
    {
      "constant": false,
      "inputs": [
        {
          "name": "numRooms",
          "type": "uint256"
        }
      ],
      "name": "setNumRooms",
      "outputs": [],
      "payable": false,
      "stateMutability": "nonpayable",
      "type": "function",
      "signature": "0x6b9e2750"
    },
    {
      "constant": false,
      "inputs": [
        {
          "name": "priceToPlay",
          "type": "uint256"
        }
      ],
      "name": "setPriceToPlay",
      "outputs": [],
      "payable": false,
      "stateMutability": "nonpayable",
      "type": "function",
      "signature": "0xfac83957"
    },
    {
      "constant": true,
      "inputs": [],
      "name": "getEmptyRoomIds",
      "outputs": [
        {
          "name": "",
          "type": "uint256[]"
        }
      ],
      "payable": false,
      "stateMutability": "view",
      "type": "function",
      "signature": "0x25f01bbd"
    },
    {
      "constant": true,
      "inputs": [
        {
          "name": "id",
          "type": "uint256"
        }
      ],
      "name": "getRoomOccupier",
      "outputs": [
        {
          "name": "",
          "type": "address"
        }
      ],
      "payable": false,
      "stateMutability": "view",
      "type": "function",
      "signature": "0x007e482c"
    },
    {
      "constant": false,
      "inputs": [
        {
          "name": "roomId",
          "type": "uint256"
        }
      ],
      "name": "hideInRoom",
      "outputs": [],
      "payable": true,
      "stateMutability": "payable",
      "type": "function",
      "signature": "0xfc98c2a5"
    },
    {
      "constant": true,
      "inputs": [],
      "name": "getShareHoldings",
      "outputs": [
        {
          "name": "",
          "type": "uint256"
        }
      ],
      "payable": false,
      "stateMutability": "view",
      "type": "function",
      "signature": "0xb587d2bf"
    },
    {
      "constant": true,
      "inputs": [],
      "name": "getSeekTokenPrice",
      "outputs": [
        {
          "name": "",
          "type": "uint256"
        }
      ],
      "payable": false,
      "stateMutability": "view",
      "type": "function",
      "signature": "0xf8c0f160"
    },
    {
      "constant": true,
      "inputs": [],
      "name": "getSeekAllocation",
      "outputs": [
        {
          "name": "",
          "type": "uint256"
        }
      ],
      "payable": false,
      "stateMutability": "view",
      "type": "function",
      "signature": "0x907a4ad1"
    },
    {
      "constant": false,
      "inputs": [
        {
          "name": "amount",
          "type": "uint256"
        }
      ],
      "name": "cashInSeekForEth",
      "outputs": [],
      "payable": true,
      "stateMutability": "payable",
      "type": "function",
      "signature": "0xe195c18a"
    },
    {
      "constant": true,
      "inputs": [],
      "name": "totalSupply",
      "outputs": [
        {
          "name": "",
          "type": "uint256"
        }
      ],
      "payable": false,
      "stateMutability": "view",
      "type": "function",
      "signature": "0x18160ddd"
    },
    {
      "constant": true,
      "inputs": [
        {
          "name": "tokenOwner",
          "type": "address"
        }
      ],
      "name": "balanceOf",
      "outputs": [
        {
          "name": "",
          "type": "uint256"
        }
      ],
      "payable": false,
      "stateMutability": "view",
      "type": "function",
      "signature": "0x70a08231"
    },
    {
      "constant": true,
      "inputs": [
        {
          "name": "tokenOwner",
          "type": "address"
        },
        {
          "name": "spender",
          "type": "address"
        }
      ],
      "name": "allowance",
      "outputs": [
        {
          "name": "",
          "type": "uint256"
        }
      ],
      "payable": false,
      "stateMutability": "view",
      "type": "function",
      "signature": "0xdd62ed3e"
    },
    {
      "constant": false,
      "inputs": [
        {
          "name": "to",
          "type": "address"
        },
        {
          "name": "tokens",
          "type": "uint256"
        }
      ],
      "name": "transfer",
      "outputs": [
        {
          "name": "",
          "type": "bool"
        }
      ],
      "payable": false,
      "stateMutability": "nonpayable",
      "type": "function",
      "signature": "0xa9059cbb"
    },
    {
      "constant": false,
      "inputs": [
        {
          "name": "spender",
          "type": "address"
        },
        {
          "name": "tokens",
          "type": "uint256"
        }
      ],
      "name": "approve",
      "outputs": [
        {
          "name": "",
          "type": "bool"
        }
      ],
      "payable": false,
      "stateMutability": "nonpayable",
      "type": "function",
      "signature": "0x095ea7b3"
    },
    {
      "constant": false,
      "inputs": [
        {
          "name": "from",
          "type": "address"
        },
        {
          "name": "to",
          "type": "address"
        },
        {
          "name": "tokens",
          "type": "uint256"
        }
      ],
      "name": "transferFrom",
      "outputs": [
        {
          "name": "",
          "type": "bool"
        }
      ],
      "payable": false,
      "stateMutability": "nonpayable",
      "type": "function",
      "signature": "0x23b872dd"
    }
  ],
  "bytecode": "0x6080604052600860015566470de4df820000600255600560035560026004556000600555600060065560006007556040805190810160405280600a81526020017f5365656b20546f6b656e00000000000000000000000000000000000000000000815250600990805190602001906200007a9291906200013e565b506040805190810160405280600481526020017f5345454b00000000000000000000000000000000000000000000000000000000815250600a9080519060200190620000c89291906200013e565b506012600b60006101000a81548160ff021916908360ff1602179055506000600c55348015620000f757600080fd5b50336000806101000a81548173ffffffffffffffffffffffffffffffffffffffff021916908373ffffffffffffffffffffffffffffffffffffffff160217905550620001ed565b828054600181600116156101000203166002900490600052602060002090601f016020900481019282601f106200018157805160ff1916838001178555620001b2565b82800160010185558215620001b2579182015b82811115620001b157825182559160200191906001019062000194565b5b509050620001c19190620001c5565b5090565b620001ea91905b80821115620001e6576000816000905550600101620001cc565b5090565b90565b61171380620001fd6000396000f3fe60806040526004361061013b576000357c010000000000000000000000000000000000000000000000000000000090048063907a4ad1116100bd578063dd62ed3e11610081578063dd62ed3e14610668578063e195c18a146106ed578063f8c0f1601461071b578063fac8395714610746578063fc98c2a5146107815761013b565b8063907a4ad1146104e457806395d89b411461050f578063a9059cbb1461059f578063b587d2bf14610612578063c143a9351461063d5761013b565b806325f01bbd1161010457806325f01bbd1461037c578063313ce567146103e85780634c0d1dfa146104195780636b9e27501461044457806370a082311461047f5761013b565b80627e482c1461014057806306fdde03146101bb578063095ea7b31461024b57806318160ddd146102be57806323b872dd146102e9575b600080fd5b34801561014c57600080fd5b506101796004803603602081101561016357600080fd5b81019080803590602001909291905050506107af565b604051808273ffffffffffffffffffffffffffffffffffffffff1673ffffffffffffffffffffffffffffffffffffffff16815260200191505060405180910390f35b3480156101c757600080fd5b506101d06107ec565b6040518080602001828103825283818151815260200191508051906020019080838360005b838110156102105780820151818401526020810190506101f5565b50505050905090810190601f16801561023d5780820380516001836020036101000a031916815260200191505b509250505060405180910390f35b34801561025757600080fd5b506102a46004803603604081101561026e57600080fd5b81019080803573ffffffffffffffffffffffffffffffffffffffff1690602001909291908035906020019092919050505061088a565b604051808215151515815260200191505060405180910390f35b3480156102ca57600080fd5b506102d361097c565b6040518082815260200191505060405180910390f35b3480156102f557600080fd5b506103626004803603606081101561030c57600080fd5b81019080803573ffffffffffffffffffffffffffffffffffffffff169060200190929190803573ffffffffffffffffffffffffffffffffffffffff16906020019092919080359060200190929190505050610986565b604051808215151515815260200191505060405180910390f35b34801561038857600080fd5b50610391610c31565b6040518080602001828103825283818151815260200191508051906020019060200280838360005b838110156103d45780820151818401526020810190506103b9565b505050509050019250505060405180910390f35b3480156103f457600080fd5b506103fd610d25565b604051808260ff1660ff16815260200191505060405180910390f35b34801561042557600080fd5b5061042e610d38565b6040518082815260200191505060405180910390f35b34801561045057600080fd5b5061047d6004803603602081101561046757600080fd5b8101908080359060200190929190505050610d3e565b005b34801561048b57600080fd5b506104ce600480360360208110156104a257600080fd5b81019080803573ffffffffffffffffffffffffffffffffffffffff169060200190929190505050610da3565b6040518082815260200191505060405180910390f35b3480156104f057600080fd5b506104f9610dec565b6040518082815260200191505060405180910390f35b34801561051b57600080fd5b50610524610e21565b6040518080602001828103825283818151815260200191508051906020019080838360005b83811015610564578082015181840152602081019050610549565b50505050905090810190601f1680156105915780820380516001836020036101000a031916815260200191505b509250505060405180910390f35b3480156105ab57600080fd5b506105f8600480360360408110156105c257600080fd5b81019080803573ffffffffffffffffffffffffffffffffffffffff16906020019092919080359060200190929190505050610ebf565b604051808215151515815260200191505060405180910390f35b34801561061e57600080fd5b50610627610fc5565b6040518082815260200191505060405180910390f35b34801561064957600080fd5b50610652610fcf565b6040518082815260200191505060405180910390f35b34801561067457600080fd5b506106d76004803603604081101561068b57600080fd5b81019080803573ffffffffffffffffffffffffffffffffffffffff169060200190929190803573ffffffffffffffffffffffffffffffffffffffff169060200190929190505050610fd5565b6040518082815260200191505060405180910390f35b6107196004803603602081101561070357600080fd5b810190808035906020019092919050505061105c565b005b34801561072757600080fd5b5061073061113f565b6040518082815260200191505060405180910390f35b34801561075257600080fd5b5061077f6004803603602081101561076957600080fd5b810190808035906020019092919050505061117e565b005b6107ad6004803603602081101561079757600080fd5b81019080803590602001909291905050506111e3565b005b60006008600083815260200190815260200160002060009054906101000a900473ffffffffffffffffffffffffffffffffffffffff169050919050565b60098054600181600116156101000203166002900480601f0160208091040260200160405190810160405280929190818152602001828054600181600116156101000203166002900480156108825780601f1061085757610100808354040283529160200191610882565b820191906000526020600020905b81548152906001019060200180831161086557829003601f168201915b505050505081565b600081600e60003373ffffffffffffffffffffffffffffffffffffffff1673ffffffffffffffffffffffffffffffffffffffff16815260200190815260200160002060008573ffffffffffffffffffffffffffffffffffffffff1673ffffffffffffffffffffffffffffffffffffffff168152602001908152602001600020819055508273ffffffffffffffffffffffffffffffffffffffff163373ffffffffffffffffffffffffffffffffffffffff167f8c5be1e5ebec7d5bd14f71427d1e84f3dd0314c0f7b2291e5b200ac8c7c3b925846040518082815260200191505060405180910390a36001905092915050565b6000600c54905090565b60006109da82600d60008773ffffffffffffffffffffffffffffffffffffffff1673ffffffffffffffffffffffffffffffffffffffff168152602001908152602001600020546112ee90919063ffffffff16565b600d60008673ffffffffffffffffffffffffffffffffffffffff1673ffffffffffffffffffffffffffffffffffffffff16815260200190815260200160002081905550610aac82600e60008773ffffffffffffffffffffffffffffffffffffffff1673ffffffffffffffffffffffffffffffffffffffff16815260200190815260200160002060003373ffffffffffffffffffffffffffffffffffffffff1673ffffffffffffffffffffffffffffffffffffffff168152602001908152602001600020546112ee90919063ffffffff16565b600e60008673ffffffffffffffffffffffffffffffffffffffff1673ffffffffffffffffffffffffffffffffffffffff16815260200190815260200160002060003373ffffffffffffffffffffffffffffffffffffffff1673ffffffffffffffffffffffffffffffffffffffff16815260200190815260200160002081905550610b7e82600d60008673ffffffffffffffffffffffffffffffffffffffff1673ffffffffffffffffffffffffffffffffffffffff1681526020019081526020016000205461131090919063ffffffff16565b600d60008573ffffffffffffffffffffffffffffffffffffffff1673ffffffffffffffffffffffffffffffffffffffff168152602001908152602001600020819055508273ffffffffffffffffffffffffffffffffffffffff168473ffffffffffffffffffffffffffffffffffffffff167fddf252ad1be2c89b69c2b068fc378daa952ba7f163c4a11628f55a4df523b3ef846040518082815260200191505060405180910390a3600190509392505050565b60608060055460015403604051908082528060200260200182016040528015610c695781602001602082028038833980820191505090505b509050600080905060008090505b600154811015610d1c57600073ffffffffffffffffffffffffffffffffffffffff166008600083815260200190815260200160002060009054906101000a900473ffffffffffffffffffffffffffffffffffffffff1673ffffffffffffffffffffffffffffffffffffffff161415610d0f57808383815181101515610cf857fe5b906020019060200201818152505081806001019250505b8080600101915050610c77565b50819250505090565b600b60009054906101000a900460ff1681565b60015481565b6000809054906101000a900473ffffffffffffffffffffffffffffffffffffffff1673ffffffffffffffffffffffffffffffffffffffff163373ffffffffffffffffffffffffffffffffffffffff16141515610d9957600080fd5b8060018190555050565b6000600d60008373ffffffffffffffffffffffffffffffffffffffff1673ffffffffffffffffffffffffffffffffffffffff168152602001908152602001600020549050919050565b6000610e1c64e8d4a51000610e0e60065460025461133190919063ffffffff16565b61135b90919063ffffffff16565b905090565b600a8054600181600116156101000203166002900480601f016020809104026020016040519081016040528092919081815260200182805460018160011615610100020316600290048015610eb75780601f10610e8c57610100808354040283529160200191610eb7565b820191906000526020600020905b815481529060010190602001808311610e9a57829003601f168201915b505050505081565b6000610f1382600d60008673ffffffffffffffffffffffffffffffffffffffff1673ffffffffffffffffffffffffffffffffffffffff1681526020019081526020016000205461131090919063ffffffff16565b600d60008573ffffffffffffffffffffffffffffffffffffffff1673ffffffffffffffffffffffffffffffffffffffff168152602001908152602001600020819055508273ffffffffffffffffffffffffffffffffffffffff163073ffffffffffffffffffffffffffffffffffffffff167fddf252ad1be2c89b69c2b068fc378daa952ba7f163c4a11628f55a4df523b3ef846040518082815260200191505060405180910390a36001905092915050565b6000600654905090565b60025481565b6000600e60008473ffffffffffffffffffffffffffffffffffffffff1673ffffffffffffffffffffffffffffffffffffffff16815260200190815260200160002060008373ffffffffffffffffffffffffffffffffffffffff1673ffffffffffffffffffffffffffffffffffffffff16815260200190815260200160002054905092915050565b8061106633610da3565b1015151561107357600080fd5b600061107d61113f565b90506000611094838361135b90919063ffffffff16565b905082600c6000828254039250508190555082600d60003373ffffffffffffffffffffffffffffffffffffffff1673ffffffffffffffffffffffffffffffffffffffff168152602001908152602001600020600082825403925050819055503373ffffffffffffffffffffffffffffffffffffffff166108fc829081150290604051600060405180830381858888f19350505050158015611139573d6000803e3d6000fd5b50505050565b600080600654148061115357506000600c54145b15611161576000905061117b565b611178600c5460065461133190919063ffffffff16565b90505b90565b6000809054906101000a900473ffffffffffffffffffffffffffffffffffffffff1673ffffffffffffffffffffffffffffffffffffffff163373ffffffffffffffffffffffffffffffffffffffff161415156111d957600080fd5b8060028190555050565b60025434101515156111f457600080fd5b6001548110151561120457600080fd5b600073ffffffffffffffffffffffffffffffffffffffff166008600083815260200190815260200160002060009054906101000a900473ffffffffffffffffffffffffffffffffffffffff1673ffffffffffffffffffffffffffffffffffffffff1614151561127257600080fd5b336008600083815260200190815260200160002060006101000a81548173ffffffffffffffffffffffffffffffffffffffff021916908373ffffffffffffffffffffffffffffffffffffffff16021790555060056000815480929190600101919050555060015460055414156112eb576112ea611399565b5b50565b60008282111515156112ff57600080fd5b600082840390508091505092915050565b600080828401905083811015151561132757600080fd5b8091505092915050565b6000808211151561134157600080fd5b6000828481151561134e57fe5b0490508091505092915050565b60008083141561136e5760009050611393565b6000828402905082848281151561138157fe5b0414151561138e57600080fd5b809150505b92915050565b6113a16113b3565b6113a96114df565b6113b1611579565b565b60006113c06001546115f4565b905060006008600083815260200190815260200160002060009054906101000a900473ffffffffffffffffffffffffffffffffffffffff169050600061141360025460015461135b90919063ffffffff16565b905060006114226005836116b7565b905060006114316005846116b7565b90506114488160065461131090919063ffffffff16565b600681905550611461828361131090919063ffffffff16565b600781905550600061148e8261148085876112ee90919063ffffffff16565b6112ee90919063ffffffff16565b90508473ffffffffffffffffffffffffffffffffffffffff166108fc829081150290604051600060405180830381858888f193505050501580156114d6573d6000803e3d6000fd5b50505050505050565b60006114e9610dec565b905060008090505b600154811015611546576115386008600083815260200190815260200160002060009054906101000a900473ffffffffffffffffffffffffffffffffffffffff1683610ebf565b5080806001019150506114f1565b5061157061155f6001548361135b90919063ffffffff16565b600c5461131090919063ffffffff16565b600c8190555050565b60008090505b6001548110156115e95760006008600083815260200190815260200160002060006101000a81548173ffffffffffffffffffffffffffffffffffffffff021916908373ffffffffffffffffffffffffffffffffffffffff160217905550808060010191505061157f565b506000600581905550565b6000606042446008600080815260200190815260200160002060009054906101000a900473ffffffffffffffffffffffffffffffffffffffff16604051602001808481526020018381526020018273ffffffffffffffffffffffffffffffffffffffff1673ffffffffffffffffffffffffffffffffffffffff166c0100000000000000000000000002815260140193505050506040516020818303038152906040529050828180519060200120600190048115156116ae57fe5b06915050919050565b60006116df60646116d1858561135b90919063ffffffff16565b61133190919063ffffffff16565b90509291505056fea165627a7a7230582039ca85e9f6078d55d3164da6d54ef2bf51aedf2f009964a445b9a8c7409765fc0029",
  "source": "pragma solidity ^0.5.2;\n\nimport \"./SafeMath.sol\";\n\ncontract HideAndSeek {\n\n  using SafeMath for uint;\n\n  address owner;\n  uint public NUM_ROOMS = 8;\n  uint public PRICE_PER_PLAY = 20 finney; // 20,000 szabo\n  uint DIVIDEND_PERCENTAGE = 5;\n  uint SHARE_PERCENTAGE = 2;\n\n  uint numRoomsOccupied = 0;\n  uint shareHoldings = 0;\n  uint devHoldings = 0;\n  mapping (uint => address payable) rooms;\n\n  event Log (\n    string message,\n    uint number\n  );\n\n  modifier onlyByOwner() {\n    require(msg.sender == owner);\n    _;\n  }\n\n  constructor() public {\n    owner = msg.sender;\n  }\n\n  function setNumRooms(uint numRooms) public onlyByOwner {\n    NUM_ROOMS = numRooms;\n  }\n\n  function setPriceToPlay(uint priceToPlay) public onlyByOwner {\n    PRICE_PER_PLAY = priceToPlay;\n  }\n\n  function getEmptyRoomIds() public view returns (uint[] memory) {\n    uint[] memory ids = new uint[](NUM_ROOMS - numRoomsOccupied);\n    uint counter = 0;\n    for (uint i = 0; i < NUM_ROOMS; i++) {\n      if (rooms[i] == address(0)) {\n        ids[counter] = i;\n        counter++;\n      }\n    }\n    return ids;\n  }\n\n  function getRoomOccupier(uint id) public view returns (address) {\n    return rooms[id];\n  }\n\n  function hideInRoom(uint roomId) public payable {\n    require(msg.value >= PRICE_PER_PLAY);\n    require(roomId < NUM_ROOMS);\n    require(rooms[roomId] == address(0));\n    rooms[roomId] = msg.sender;\n    numRoomsOccupied++;\n    if (numRoomsOccupied == NUM_ROOMS) {\n      endRound();\n    }\n  }\n\n  function endRound() internal {\n    rewardWinner();\n    giveOutSeekToken();\n    emptyHouse();\n  }\n\n  function random(uint maxValue) internal view returns (uint) {\n    bytes memory seed = abi.encodePacked(\n      block.timestamp, \n      block.difficulty, \n      rooms[0]\n    );\n    return uint(uint(keccak256(seed)) % maxValue);\n  }\n\n  function rewardWinner() internal {\n    uint rnd = random(NUM_ROOMS);\n    address payable winner = rooms[rnd];\n    uint totalFromRound = NUM_ROOMS.mul(PRICE_PER_PLAY);\n\n    uint devTakings = getPercentageOfValue(5, totalFromRound);\n    uint shareTakings = getPercentageOfValue(5, totalFromRound);\n    shareHoldings = shareHoldings.add(shareTakings);\n    devHoldings = devTakings.add(devTakings);\n\n    uint winnings = totalFromRound.sub(devTakings).sub(shareTakings);\n    winner.transfer(winnings);\n  }\n\n  function giveOutSeekToken() internal {\n    uint numTokens = getSeekAllocation();\n    for (uint i = 0; i < NUM_ROOMS; i++) {\n      transfer(rooms[i], numTokens);\n    }\n    totalSupplySeek = totalSupplySeek.add(numTokens.mul(NUM_ROOMS));\n  }\n\n  function emptyHouse() internal {\n    for (uint i = 0; i < NUM_ROOMS; i++) {\n      rooms[i] = address(0);\n    }\n    numRoomsOccupied = 0;\n  }\n\n  function getShareHoldings() public view returns (uint) {\n    return shareHoldings;\n  }\n\n  /*\n  ** SEEK Calculations\n  */\n\n  function getPercentageOfValue(uint percent, uint value) internal pure returns (uint) {\n    return value.mul(percent).div(100);\n  }\n\n  /*\n  * The price of SEEK in ETH\n  */\n  function getSeekTokenPrice() public view returns (uint) {\n    if (shareHoldings == 0 || totalSupplySeek == 0) {\n      return 0;\n    }\n    return shareHoldings.div(totalSupplySeek);\n  }\n\n  /*\n  * The seek token allocation is equivalent 1 / (shareHoldings)\n  */\n  function getSeekAllocation() public view returns (uint) {\n    return (PRICE_PER_PLAY.div(shareHoldings)).mul(1 szabo);\n  }\n\n  function cashInSeekForEth(uint amount) public payable {\n    require(balanceOf(msg.sender) >= amount);\n    uint seekPrice = getSeekTokenPrice();\n    uint ethAmount = seekPrice.mul(amount);\n    totalSupplySeek -= amount;\n    seekBalances[msg.sender] -= amount;\n    msg.sender.transfer(ethAmount);\n  }\n\n\n  /*\n  **\n  ** SEEK TOKEN INTERFACE: ERC20 COMPLIANT (Uses Proof-of-Hiding algorhythm)\n  **\n  */\n  // Public variables\n  string public name = \"Seek Token\";\n  string public symbol = \"SEEK\";\n  uint8 public decimals = 18;\n  //\n  uint totalSupplySeek = 0;\n  mapping (address => uint) seekBalances;\n  mapping(address => mapping (address => uint256)) allowed;\n\n\n  function totalSupply() public view returns (uint) {\n    return totalSupplySeek;\n  }\n  function balanceOf(address tokenOwner) public view returns (uint) {\n    return seekBalances[tokenOwner];\n  }\n  function allowance(address tokenOwner, address spender) public view returns (uint) {\n    return allowed[tokenOwner][spender];\n  }\n  function transfer(address to, uint tokens) public returns (bool) {\n    seekBalances[to] = seekBalances[to].add(tokens);\n    emit Transfer(address(this), to, tokens);\n    return true;\n  }\n  function approve(address spender, uint tokens) public returns (bool) {\n    allowed[msg.sender][spender] = tokens;\n    emit Approval(msg.sender, spender, tokens);\n    return true;\n  }\n  function transferFrom(address from, address to, uint tokens) public returns (bool) {\n    seekBalances[from] = seekBalances[from].sub(tokens);\n    allowed[from][msg.sender] = allowed[from][msg.sender].sub(tokens);\n    seekBalances[to] = seekBalances[to].add(tokens);\n    emit Transfer(from, to, tokens);\n    return true;\n  }\n\n  event Transfer(address indexed from, address indexed to, uint tokens);\n  event Approval(address indexed tokenOwner, address indexed spender, uint tokens);\n\n}\n",
  "sourcePath": "D:/dapps/hide-and-seek/contracts/HideAndSeek.sol",
  "compiler": {
    "name": "solc",
    "version": "0.5.2+commit.1df8f40c.Emscripten.clang"
  },
  "schemaVersion": "3.0.6",
  "updatedAt": "2019-04-21T03:36:42.370Z",
  "devdoc": {
    "methods": {}
  },
  "userdoc": {
    "methods": {}
  }
}