{
  "contractName": "HideAndSeek",
  "abi": [
    {
      "constant": true,
      "inputs": [],
      "name": "getEmptyRoomIds",
      "outputs": [
        {
          "name": "",
          "type": "uint8[]"
        }
      ],
      "payable": false,
      "stateMutability": "view",
      "type": "function",
      "signature": "0x25f01bbd"
    },
    {
      "constant": false,
      "inputs": [
        {
          "name": "roomId",
          "type": "uint8"
        }
      ],
      "name": "hideInRoom",
      "outputs": [],
      "payable": true,
      "stateMutability": "payable",
      "type": "function",
      "signature": "0x20f0aea8"
    }
  ],
  "bytecode": "0x608060405260086000806101000a81548160ff021916908360ff16021790555066470de4df8200006001556000600260006101000a81548160ff021916908360ff16021790555034801561005257600080fd5b5061044c806100626000396000f3fe60806040526004361061004c576000357c0100000000000000000000000000000000000000000000000000000000900463ffffffff16806320f0aea81461005157806325f01bbd14610082575b600080fd5b6100806004803603602081101561006757600080fd5b81019080803560ff1690602001909291905050506100ee565b005b34801561008e57600080fd5b50610097610256565b6040518080602001828103825283818151815260200191508051906020019060200280838360005b838110156100da5780820151818401526020810190506100bf565b505050509050019250505060405180910390f35b60015434101515156100ff57600080fd5b6000809054906101000a900460ff1660ff168160ff1610151561012157600080fd5b600073ffffffffffffffffffffffffffffffffffffffff16600360008360ff1660ff16815260200190815260200160002060009054906101000a900473ffffffffffffffffffffffffffffffffffffffff1673ffffffffffffffffffffffffffffffffffffffff1614151561019557600080fd5b33600360008360ff1660ff16815260200190815260200160002060006101000a81548173ffffffffffffffffffffffffffffffffffffffff021916908373ffffffffffffffffffffffffffffffffffffffff1602179055506002600081819054906101000a900460ff168092919060010191906101000a81548160ff021916908360ff160217905550506000809054906101000a900460ff1660ff16600260009054906101000a900460ff1660ff16141561025357610252610379565b5b50565b606080600260009054906101000a900460ff1660ff1660405190808252806020026020018201604052801561029a5781602001602082028038833980820191505090505b509050600080905060008090505b6000809054906101000a900460ff1660ff168160ff16101561037057600073ffffffffffffffffffffffffffffffffffffffff16600360008360ff1660ff16815260200190815260200160002060009054906101000a900473ffffffffffffffffffffffffffffffffffffffff1673ffffffffffffffffffffffffffffffffffffffff1614156103635780838360ff1681518110151561034457fe5b9060200190602002019060ff16908160ff168152505081806001019250505b80806001019150506102a8565b50819250505090565b60008090505b6000809054906101000a900460ff1660ff168160ff161015610401576000600360008360ff1660ff16815260200190815260200160002060006101000a81548173ffffffffffffffffffffffffffffffffffffffff021916908373ffffffffffffffffffffffffffffffffffffffff160217905550808060010191505061037f565b506000600260006101000a81548160ff021916908360ff16021790555056fea165627a7a7230582081a73f832483e6c3cce65a1cc41ad64c0ae1f758ec10d55659d21a66e30e641e0029",
  "source": "pragma solidity ^0.5.0;\n\n// import \"openzeppelin-solidity/contracts/math/SafeMath.sol\";\n\ncontract HideAndSeek {\n\n  // using SafeMath for uint256;\n\n  uint8 NUM_ROOMS = 8;\n  uint PRICE_TO_HIDE = 20 finney;\n  uint8 numRoomsOccupied = 0;\n  mapping (uint8 => address) rooms;\n\n\n  function getEmptyRoomIds() public view returns (uint8[] memory) {\n    uint8[] memory ids = new uint8[](numRoomsOccupied);\n    uint8 counter = 0;\n    for (uint8 i = 0; i < NUM_ROOMS; i++) {\n      if (rooms[i] == address(0)) {\n        ids[counter] = i;\n        counter++;\n      } \n    }\n    return ids;\n  }\n\n  function hideInRoom(uint8 roomId) public payable {\n    require(msg.value >= PRICE_TO_HIDE);\n    require(roomId < NUM_ROOMS);\n    require(rooms[roomId] == address(0));\n    rooms[roomId] = msg.sender;\n    numRoomsOccupied++;\n    if (numRoomsOccupied == NUM_ROOMS) {\n      chooseWinner();\n    }\n  }\n\n  function chooseWinner() internal {\n    // TODO: Randomly select winner, and transfer winnings\n    for (uint8 i = 0; i < NUM_ROOMS; i++) {\n      rooms[i] = address(0);\n    }\n    numRoomsOccupied = 0;\n  }\n\n\n}\n",
  "sourcePath": "D:/dapps/hide-and-seek/contracts/HideAndSeek.sol",
  "compiler": {
    "name": "solc",
    "version": "0.5.0+commit.1d4f565a.Emscripten.clang"
  },
  "schemaVersion": "3.0.2",
  "updatedAt": "2019-04-11T08:55:26.346Z",
  "devdoc": {
    "methods": {}
  },
  "userdoc": {
    "methods": {}
  }
}